:020000040800F2
:1000000058090020351B000841030008430300087D
:10001000470300084B0300084F03000800000000DE
:100020000000000000000000000000005303000872
:10003000550300080000000057030008590300089A
:100040004F1B0008011500084F1B00084F1B00083C
:100050004F1B00084F1B00085D12000873120008B8
:100060004F1B00084F1B00084F1B00084F1B0008C8
:100070004F1B00084F1B00084F1B00084F1B0008B8
:100080004F1B00084F1B00084F1B00084F1B0008A8
:100090004F1B00084F1B00084F1B00084F1B000898
:1000A0004F1B00084F1B00084F1B00084F1B000888
:1000B0003F140008D90A00084F1B00084F1B000816
:1000C0004F1B00084F1B00084F1B00084F1B000868
:1000D0004F1B00088F1A00084F1B00084F1B000819
:1000E0004F1B00084F1B00084F1B00084F1B000848
:1000F0004F1B00084F1B00084F1B00084F1B000838
:100100004F1B00084F1B00084F1B00084F1B000827
:100110004F1B00084F1B00084F1B00084F1B000817
:100120004F1B00084F1B0008770C00084F1B0008EE
:100130004F1B00084F1B00084F1B00084F1B0008F7
:100140004F1B00084F1B00084F1B00084F1B0008E7
:100150004F1B0008610C00084F1B00084F1B0008D4
:100160004F1B00084F1B00084F1B00084F1B0008C7
:100170004F1B00084F1B00084F1B00084F1B0008B7
:100180004F1B00084F1B000800F002F800F041F878
:100190000AA090E8000C82448344AAF10107DA45E2
:1001A00001D100F036F8AFF2090EBAE80F0013F0F3
:1001B000010F18BFFB1A43F001031847084700005E
:1001C00028470000103A24BF78C878C1FAD85207EF
:1001D00024BF30C830C144BF04680C6070470000C1
:1001E0000023002400250026103A28BF78C1FBD840
:1001F000520728BF30C148BF0B607047642903F025
:100200006F87002070471FB504F056FB1FBD10B567
:1002100010BD04F089F81146FFF7F5FF00F008F86B
:1002200004F0A7F803B4FFF7F2FF03BC01F0E4FB0E
:1002300008B54FF4A06001F09DFCA82001F05AFB26
:100240004FF4E13001F0E5FB00F0AEF900F0CAFC3C
:1002500000F018FB00F0D8FD00F088F9002208211A
:100260002C4801F0D1FF012204212A4801F0CCFFE3
:1002700000BF4021274801F0A9FF0028F9D14FF421
:100280007A7001F099FB4FF47A7001F095FB40E031
:100290002148006890F8240000901F48006890F8FA
:1002A00023301D48006890F822201B48006890F811
:1002B00021101AA003F008FF4021164801F086FF24
:1002C00068B101201D49086000220821114801F091
:1002D0009BFF012204210F4801F096FF11E017480F
:1002E0000068012804D100201449086000F0BFFB19
:1002F00001220821074801F087FF0421054801F089
:100300008AFF4FF42F7001F057FB00F0B3FD00F0AF
:10031000A8FBBDE7001002403000002031203D2046
:1003200025642032203D2025642033203D20256493
:100330002034203D2025640D0A000000000000202C
:10034000704700BFFEE700BFFEE700BFFEE700BF4B
:10035000FEE7704770477047704700000CB50020FB
:10036000019000907648006840F48030744908603D
:1003700000BF7348006800F4003000900198401CF2
:100380000190009818B90198B0F5A04FF1D16C48D0
:10039000006800F4003010B10120009001E000205E
:1003A00000900098012846D165484030006840F030
:1003B00080506349403108606248006840F4404022
:1003C000604908605E48083000685D49083108608F
:1003D0000846006840F4004008600846006840F4A1
:1003E000A05008605848091F0860081F006840F0C6
:1003F0008070091F086000BF5148006800F000705D
:100400000028F9D040F20570504908604C48083087
:10041000006820F003004A49083108600846006877
:1004200040F00200086000BF45480830006800F056
:100430000C000828F8D10CBD10B54548006840F400
:100440007000434908603E48006840F001003C49A4
:10045000086000203A4908310860394800683D4981
:100460000840374908603C48091D0860081F0068BB
:1004700020F48020091F0860002031490C310860F9
:10048000FFF76CFF4FF0006031498039086010BD04
:1004900070B500200022022300240221284D0835D7
:1004A0002D6805F00C0020B1042806D0082834D1AE
:1004B00007E02A4D2A4E356033E02A4D284E35603C
:1004C0002FE01F4D2D1D2D68C5F380541C4D2D1D93
:1004D0002D6805F03F0154B1224DB5FBF1F5184EE2
:1004E000361D3668C6F3881605FB06F209E01B4D7B
:1004F000B5FBF1F5124E361D3668C6F3881605FBBE
:1005000006F20F4D2D1D2D68C5F301456D1C6B00C6
:10051000B2FBF3F5124E356003E0104D104E35601E
:1005200000BF00BF064D08352D68C5F303150E4EFC
:10053000705D0B4D2D68C540094E356070BD0000E3
:10054000003802400070004008544007003C024060
:1005500088ED00E0FFFFF6FE103000240024F400D8
:100560000400002000127A00080000201CB50121C0
:10057000182002F091FA1C20009001208DF8040050
:1005800000208DF8060003208DF8050001208DF86D
:1005900007006946034801F0B7FD1C21014801F03E
:1005A0002FFE1CBD001002401CB50121082002F0E6
:1005B00073FA0F20009000208DF8040003208DF8BE
:1005C000050002208DF8070069461E4801F09CFDD9
:1005D00000BF02211B4801F0F9FD0446042119481F
:1005E00001F0F4FD04EB40040821164801F0EEFD93
:1005F00004EB80040121134801F0E8FD04EBC00086
:1006000011490860642001F0D7F902210D4801F07A
:10061000DDFD044604210B4801F0D8FD04EB400445
:100620000821084801F0D2FD04EB800401210548AF
:1006300001F0CCFD04EBC00003490968884200D0FA
:10064000C7E71CBD000C0240180000202DE9F04354
:100650008FB004460D4616461F46DDE916893D4813
:10066000844204D90121880502F016FA03E0012131
:10067000480502F011FA204601F0ECFA00BF2046CE
:1006800001F011FC0028FAD1009501960297B9F10A
:10069000000F02D04020039001E000200390CDF82D
:1006A0001080002005904FF4806006900020079095
:1006B000089009904FF480300A9000200B9003209E
:1006C0000C9000200D900E906946204601F064FBCE
:1006D0000FB0BDE8F08370B504460D4600212046FA
:1006E00001F094FB00BF204601F0DDFB0028FAD1A9
:1006F0002946204601F0ABFB0121204601F086FB94
:1007000070BD08B53A208DF8000001208DF8010079
:100710008DF802008DF80300684601F030FA0122DE
:1007200018210C48403001F0FEFB45208DF80000F8
:1007300001208DF801008DF802008DF80300684655
:1007400001F01DFA012210210248A03001F0EBFB5C
:1007500008BD0000006402409B4A9C490A614FF4B6
:1007600000424A619A4ACA6112150A62994A8A622B
:100770004FF40042CA62974A4A634FF480428A6348
:10078000934A0A64D2144A64012009E09249934AC8
:1007900042F830108915014102EBC0025160401C43
:1007A0000928F3DB01200BE088490C318C4A42F820
:1007B00030108A4901EBC00102EBC0025160401CBD
:1007C0000928F1DB09200EE080491831844A42F8FB
:1007D0003010A0F10801814A02EBC101804A02EB0E
:1007E000C0025160401C1128EEDB11200EE0774959
:1007F00024317B4A42F83010A0F10C01774A02EB19
:10080000C101774A02EBC0025160401C1528EEDBA3
:1008100015200EE06D492431714A42F83010A0F1E4
:1008200014016E4A02EBC1016D4A02EBC002516035
:10083000401C1928EEDB19200EE064493031684A6B
:1008400042F83010A0F11801644A02EBC101644A79
:1008500002EBC0025160401C2128EEDB21200EE09B
:100860005A493C315E4A42F83010A0F120015B4AFF
:1008700002EBC1015A4A02EBC0025160401C292818
:10088000EEDB70471CB50121402002F005F9012183
:10089000084602F001F90121042002F0FDF80121CF
:1008A000202002F0F9F8FF20009001208DF80400CC
:1008B00000208DF8060003208DF8050002208DF839
:1008C00007006946444801F01FFC009881B2424885
:1008D00001F098FC4FF40040009069463A4801F05E
:1008E00013FC009881B2384801F08CFC4FF4406052
:1008F00000906946364801F007FC009881B2344800
:1009000001F080FC4FF4404000906946314801F00E
:10091000FBFB009881B22F4801F074FCFFF71CFF2D
:100920001CBD10B50446228991B2606801F068FCD4
:100930000A2001F041F8228991B2606801F062FC5E
:100940000A2001F039F810BD2DE9F04104460E46A9
:10095000002C36DD292C34DA214850F83400077891
:100960001F4800EBC40045687EB1B9B2286801F0A9
:1009700050FCAA8891B2286801F042FC0120194974
:10098000085519A003F0A0FB0EE0B9B2286801F0E9
:1009900040FCAA8891B2286801F034FC002011497B
:1009A000085512A003F090FB0D4951F83400FFF7F1
:1009B000B8FF286801F020FC094951F8341008708C
:1009C00000BFBDE8F081000000000240B000002040
:1009D0000008024000140240001802406800002095
:1009E000F8000020400200203737000038380000AF
:1009F0007620B14909680870F520AF490968487048
:100A0000AE480078AC49096888700220AA49096894
:100A1000C8705020A84909680871FF20A6490968D4
:100A200081F85500CC21A448006880F85610704722
:100A30007CB505460C4600BFA14801F00AFA002823
:100A4000FAD10121A0B22B469E4ACDE900014FF018
:100A500020619B48FFF7FAFDA1B29948FFF73BFEE2
:100A60007CBD10B557219848FFF7E2FF10BD10B5C7
:100A700008219648FFF7DCFF10BD7FB505460C4600
:100A80000121022002F051F80295ADF80440002047
:100A9000ADF80600ADF80C0001A98D4802F02FFC5E
:100AA00001218B4802F096FC0021894802F0B0FC3D
:100AB00001221146864803F0C3F81D208DF800007E
:100AC00000208DF801008DF8020001208DF8030050
:100AD000684601F054F87FBD70B501217C4803F0F1
:100AE000C6F801283CD1002438E07A49601C085C33
:100AF000095D00EB012047F2F56188422DD1754870
:100B000020447549086008460068007A0968C97978
:100B100000EB01204FF6CC7188421ED16E48006870
:100B2000C078042809D1002504E000212846FFF7F9
:100B30000BFF6D1C292DF8DB0FE066482044664949
:100B400008600A4612689179634A12685079FFF783
:100B5000FBFE08216148FFF76BFF641C092CC4D31E
:100B600001215B4803F094F80021594802F050FC41
:100B7000092153486038FFF7AEFD70BD1CB5012157
:100B8000142001F089FF2020009001208DF804003E
:100B900000208DF8060003208DF8050001208DF857
:100BA000070069464E4801F0AFFA20214C4801F099
:100BB00027FB4FF40050009069464A4801F0A4FA20
:100BC0004FF40051474801F01BFB402000900020EB
:100BD0008DF8040001208DF807006946404801F0B7
:100BE00093FA1CBD1CB5FFF7C9FF4FF4614000F03C
:100BF0005BFFFFF7FDFE01205721334B314ACDE962
:100C000000104FF020612E48FFF720FD0020112139
:100C1000304B2C4ACDE900104FF020612848603855
:100C2000FFF714FDFFF76DFD012280212548001F0D
:100C300001F0CAFC012240212248001F01F0C4FC3F
:100C400011211F486038FFF746FD57211C48FFF768
:100C500042FD42F2CF0140F28F10FFF70EFF1CBDA4
:100C600010B52149164801F07BF918B11E49144806
:100C700001F0A0F910BD10B51C491148603801F011
:100C80006FF940B119490E48603801F093F901211C
:100C90000F4802F0BDFB16490948603801F060F9C1
:100CA00048B113490648603801F084F9112104481D
:100CB0006038FFF710FD10BD300000201800002044
:100CC000A064024004140140A1020020240000207E
:100CD00000040040900200202C0000201C00002096
:100CE0000010024000080240008020200040101048
:100CF0000080201000B58DB00121084601F0CCFE27
:100D00000121022001F0C8FE0121042001F0C4FEEF
:100D10000121080201F01AFFFF200B9003208DF83B
:100D2000300000208DF833000BA9FE4801F0ECF9EB
:100D300003200B908DF8300000208DF833000BA9B4
:100D4000F94801F0E1F93F200B900BA9F74801F0B9
:100D5000DBF94FF4C8500B9000208DF830008DF86F
:100D600033000BA9EF4801F0CFF94FF400700B905E
:100D70000BA9EE4801F0C8F90121080201F03BFF80
:100D800000214FF4807001F036FF002007900A9098
:100D900009904FF44030089007A802F00BF80020AB
:100DA00001908DF808008DF809000390059001204E
:100DB0008DF8180001A9DE4801F0CDFF0121DC48C3
:100DC00002F00FF80DB000BD70B504460121D848FF
:100DD00002F007F8072301222146D54802F041F826
:100DE000D34802F09AF800BF0221D14802F0B6F9C8
:100DF0000028F9D0CE4802F0CCF805460021CC48B6
:100E000001F0EFFF284670BD1CB50121082001F05C
:100E100043FE4FF4E060009001208DF804000020B4
:100E20008DF8060003208DF8050001208DF80700DD
:100E30006946C04801F068F9FFF75CFF1CBD10B5BA
:100E4000044604F001024FF48061BA4801F0DCF975
:100E500004F002024FF40071B64801F0D5F904F035
:100E600004024FF48071B34801F0CEF9142000F071
:100E7000A3FD10BD70B52DED068B0020FFF7DFFF41
:100E8000002423E0AC49085DFFF79EFF054603F010
:100E900002FC41EC1A0B9FEDA90B53EC102B03F055
:100EA00075FA41EC190B9FEDA70B53EC102B03F0D7
:100EB00005FC41EC180B03F0C1FBC1B2002000EBB4
:100EC0008402A2480068401D8154641C0A2CD9DBAE
:100ED0000120FFF7B4FF002423E09749085DFFF7E6
:100EE00073FF054603F0D7FB41EC1A0B9FED930B04
:100EF00053EC102B03F04AFA41EC190B9FED910BC8
:100F000053EC102B03F0DAFB41EC180B03F096FBCB
:100F1000C1B2292000EB84028C480068401D815436
:100F2000641C0A2CD9DB0220FFF789FF002423E090
:100F30008149085DFFF748FF054603F0ACFB41EC33
:100F40001A0B9FED7E0B53EC102B03F01FFA41ECB4
:100F5000190B9FED7C0B53EC102B03F0AFFB41EC16
:100F6000180B03F06BFBC1B2012000EB8402774841
:100F70000068401D8154641C0A2CD9DB0320FFF754
:100F80005EFF002423E06C49085DFFF71DFF054666
:100F900003F081FB41EC1A0B9FED680B53EC102B17
:100FA00003F0F4F941EC190B9FED660B53EC102B99
:100FB00003F084FB41EC180B03F040FBC1B2282086
:100FC00000EB840261480068401D8154641C0A2CB7
:100FD000D9DB0420FFF733FF002423E05649085DE6
:100FE000FFF7F2FE054603F056FB41EC1A0B9FEDAE
:100FF000530B53EC102B03F0C9F941EC190B9FED87
:10100000510B53EC102B03F059FB41EC180B03F080
:1010100015FBC1B22A2000EB84024C480068401D39
:101020008154641C0A2CD9DB0520FFF708FF00243B
:1010300023E04149085DFFF7C7FE054603F02BFB9F
:1010400041EC1A0B9FED3D0B53EC102B03F09EF976
:1010500041EC190B9FED3B0B53EC102B03F02EFBD7
:1010600041EC180B03F0EAFAC1B2032000EB840252
:1010700036480068401D8154641C0A2CD9DB0620C8
:10108000FFF7DDFE002423E02B49085DFFF79CFEFF
:10109000054603F000FB41EC1A0B9FED280B53ECC7
:1010A000102B03F073F941EC190B9FED260B53EC59
:1010B000102B03F003FB41EC180B03F0BFFAC1B295
:1010C000022000EB840221480068401D8154641C0A
:1010D0000A2CD9DB0720FFF7B2FE00243AE01649BC
:1010E000085DFFF771FE054603F0D5FA41EC1A0BD7
:1010F0009FED120B53EC102B03F048F941EC190B48
:101100009FED100B53EC102B03F0D8FA41EC180BA9
:1011100003F094FAC1B22B2000EB84020B48006864
:10112000401D15E00000024000040240000802409B
:1011300000200140000C02403400002000000000AC
:101140000000B0400000000000C0624030000020FD
:101150008154641C0A2CC2DB0820FFF735FE0446CC
:1011600003F099FA41EC1A0B1FED0C0B53EC102B0A
:1011700003F00CF941EC190B1FED0E0B53EC102B87
:1011800003F09CFA41EC180B03F058FAC1B2324854
:10119000006880F823100A20FFF716FE044603F0CB
:1011A0007AFA41EC1A0B1FED1B0B53EC102B03F0DA
:1011B000EDF841EC190B1FED1D0B53EC102B03F058
:1011C0007DFA41EC180B03F039FAC1B222480068ED
:1011D00080F824100920FFF7F7FD044603F05BFABE
:1011E00041EC1A0B1FED2B0B53EC102B03F0CEF838
:1011F00041EC190B1FED2D0B53EC102B03F05EFA95
:1012000041EC180B03F01AFAC1B21348006880F8D9
:101210004B100B20FFF7D8FD044603F03CFA41ECDD
:101220001A0B1FED3A0B53EC102B03F0AFF841EC07
:10123000190B1FED3C0B53EC102B03F03FFA41EC64
:10124000180B03F0FBF9C1B20348006880F84C109A
:10125000BDEC068B70BD00003000002010B50A20E8
:1012600000F0AAFB80A002F02FFF012002F06BFE2D
:1012700010BD10B50A2000F09FFB7FA002F024FFF4
:10128000022002F060FE10BD1FB50121084601F0EA
:101290004CFC4CF24F3002900020ADF80400ADF849
:1012A0000600ADF80C0001A94FF0804002F027F8CD
:1012B0000121880702F08EF80121880702F0A8F8C2
:1012C00001221146900702F0BBFC1C208DF80000A3
:1012D00001208DF8010003208DF8020001208DF817
:1012E0000300684600F04BFC1FBD1CB50121062021
:1012F00001F0D2FB0320009000208DF804000320B1
:101300008DF8050001208DF8070069465E4800F061
:10131000FBFE69465D4800F0F7FEFFF7B5FF1CBD18
:1013200070B504460D464FF416760121880702F089
:101330006FF801205649086000204FF08041486254
:1013400000BF5348006818B1206928400028F8D130
:1013500000BF4F48006818B1206928400028F8D025
:1013600000204FF08041486200BF4948006818B132
:10137000206928400028F8D14FF08040406A30446E
:101380004449086000BF4248006818B120692840FD
:101390000028F8D04FF08040406A3F490860084676
:1013A000006828B900203B49086001203A490860DC
:1013B000384890ED000AB8EEC00ADFED380A60EE5A
:1013C000200A354890ED000AB8EEC01A80EE810A76
:1013D00070BD10B501212C48FFF7A2FFBCEEC00A7A
:1013E00010EE100AC1B22E48006880F823100121C7
:1013F0002648FFF795FFBCEEC00A10EE100AC1B2F6
:101400002748006880F8241002211F48FFF788FF52
:10141000BCEEC00A10EE100AC1B22148006880F884
:10142000361002211948FFF77BFFBCEEC00A10EE10
:10143000100AC1B21A48006880F8351010BD10B506
:101440000121880702F013FC012802D10020104975
:1014500008600121880702F01BFC00214FF080404A
:1014600001F0D6FF10BD0000657869743020696E08
:1014700074200D0A00000000657869743120696EDF
:1014800074200D0A00000000000402400008024021
:101490004C00002044000020480000200000DA42F8
:1014A000300000200EB502F057FD0121080701F0C1
:1014B0003CFB01208DF800008DF8010000208DF824
:1014C000020001208DF80300684600F058FB01A8D7
:1014D00002F00FFD4FF48030019000208DF80800DD
:1014E00008208DF8090001208DF80A0001A802F0FB
:1014F000B9FCE02002F03EFD012002F044FD0EBDEB
:1015000010B5042002F0D1FD4FF4803002F01BFD35
:1015100050220249002000F0DAF910BD40020020FC
:101520001CB50121022001F0B7FA602000900120D3
:101530008DF8040000208DF8060003208DF80500CA
:1015400001208DF807006946884800F0DDFD012084
:10155000874908608749C1F898021CBD10B58348C7
:10156000006820F44050814908600846006840F453
:101570008050086001207E49091D08607D49C1F83E
:101580009402042000F0D0F900207949091D086078
:10159000042000F0C9F900207649C1F8940210BD7A
:1015A00010B57248006820F4405070490860084641
:1015B000006840F48050086000206D4908606D4963
:1015C000C1F89802042000F0AFF9012068490860D2
:1015D0006849C1F89802042000F0A6F910BD10B5C2
:1015E00000246248006820F44050604908600846C2
:1015F0000068086001205E49091D086000F094F948
:1016000001205C49C1F8940200F08EF907E0601CEB
:10161000C4B2FA2C03DDFFF7C3FF012010BD54480C
:101620007C3800680028F2D15149086000BFF5E716
:1016300010B500204E4908604C48006820F4405026
:101640004A4908600846006840F48050086000205D
:101650004849C1F89802022000F066F90120444987
:101660000860022000F060F900204249C1F89402AD
:1016700010BD10B500203E4908603C48006820F4C9
:1016800040503A4908600846006840F480500860BD
:1016900001203849C1F89802022000F045F90120E4
:1016A00033490860022000F03FF900203149C1F8B9
:1016B000940210BD70B504462C48006820F44050D8
:1016C0002A4908600846006840F4805008600020FD
:1016D00027490860002517E0E0092549091D086031
:1016E0006006040E022000F01FF901202149C1F814
:1016F0009402022000F018F900201D490860022021
:1017000000F012F9681CC5B2082DE5DB70BD70B59C
:10171000054600241548006820F44050134908602D
:10172000084600680860002616E00020104908609E
:10173000022000F0F9F801200E49C1F89402600679
:10174000040E0B487C38006808B1601CC4B201204C
:1017500000F0EAF8701CC6B2082EE6DB15B9FFF7F8
:1017600088FF01E0FFF764FF204670BD00040240DF
:10177000948240420080404210B5FFF7D1FE10BD78
:1017800070B504460026FFF7E9FE2546E11704EB95
:1017900011610912A02202EB4101C8B2FFF78AFFD2
:1017A000FFF71DFFE11704EB11610912A4EB012102
:1017B000C8B2FFF77FFFFFF712FFFFF7CFFEA120B0
:1017C000FFF778FFFFF70BFF0020FFF7A0FF0646AB
:1017D000FFF7E6FE304670BD70B504460E46FFF7D3
:1017E000BDFE2546E11704EB11610912A02202EBB0
:1017F0004101C8B2FFF75EFFFFF7F1FEE11704EB0E
:1018000011610912A4EB0121C8B2FFF753FFFFF7E2
:10181000E6FE3046FFF74EFFFFF7E1FEFFF7C0FEA2
:101820000A2000F0C9F870BD2DE9F04105460E46CA
:101830001746002409E0E20026FA02F2D1B22A1982
:1018400090B2FFF7C9FF601CC4B2BC42F3DBBDE835
:10185000F0812DE9F04107460C460026002509E0FD
:1018600036023919491B491E88B2FFF789FF064421
:10187000681CC5B2A542F3DB3046BDE8F08110B567
:10188000FF20FFF77DFF0446552C01D1002010BD3D
:101890005521FF20FFF7A0FFFF20FFF771FF04464F
:1018A000552C01D10020F2E70120F0E770B5064683
:1018B0000C46154608E03046721C96B2FFF760FFF2
:1018C00004F8010B681E85B2002DF4D170BD70B50F
:1018D00005460C46164606E021782846FFF77CFFB1
:1018E000681C85B2641C301EA6F101018EB2F3D1D2
:1018F00070BD000010B504466FF0040000F08CF9D4
:10190000E11704EB5171C1F3C701394A1170104658
:10191000007800EB4001C1EBC0104FF6FF7101EA07
:10192000C0003449088010BD0146314A12784A434C
:101930004FF0E0235A6100229A611A46126942F080
:1019400001021A6100BF4FF0E022106900F00102AD
:101950001AB100F48032002AF5D04FF0E02212696B
:1019600022F001024FF0E0231A6100229A617047D1
:101970000146204A12884A434FF0E0235A61002270
:101980009A611A46126942F001021A6100BF4FF0D3
:10199000E022106900F001021AB100F48032002A3E
:1019A000F5D04FF0E022126922F001024FF0E0235F
:1019B0001A6100229A61704770B504464FF40770AF
:1019C00094FBF0F0C6B24FF4077094FBF0F100FB0B
:1019D000114085B205E04FF40770FFF7C9FF701E94
:1019E000C6B2002EF7D115B12846FFF7C1FF70BD72
:1019F000500000205200002000BF704700BF494A3D
:101A0000128802F04002002AF9D0C2B2454B9A80F7
:101A1000704710B586B004460121084601F03CF835
:101A20000121102001F092F8072209213E4800F020
:101A3000F6FB07220A213C4800F0F1FB4FF4C0609E
:101A4000049002208DF814008DF8150000208DF808
:101A5000160001208DF8170004A9334800F054FB4C
:101A600000940020ADF80400ADF80600ADF80800C1
:101A7000ADF80C000C20ADF80A006946294800F0CA
:101A80006EFC0121274800F0F2FC06B010BD10B535
:101A9000002240F22551234800F09FFD40F22551DD
:101AA000204800F010FE10BD10B586B0044601219C
:101AB000042000F0F1FF0121202001F047F8082266
:101AC00006211A4800F0ABFB08220721174800F056
:101AD000A6FBC020049002208DF814008DF815009C
:101AE00000208DF8160001208DF8170004A90F487A
:101AF00000F00AFB00940020ADF80400ADF80600E9
:101B0000ADF80800ADF80C000C20ADF80A006946ED
:101B1000074800F024FC0121054800F0A8FC06B0AD
:101B200010BD00000010014000000240000802400B
:101B3000001401400948804709480047FEE7FEE7D6
:101B4000FEE7FEE7FEE7FEE7FEE7FEE7FEE7FEE76D
:101B500004480549054A064B70470000390400084F
:101B6000890100085803002058090020580500206A
:101B70005805002032490143324A1160704770B560
:101B8000002100230F22C4781CB32E4C246804F4D7
:101B9000E064C4F5E064C4F30721C1F10404E3B2D6
:101BA0000A4144789C40E1B28478144021430C07F8
:101BB000210E254C05786155047804F01F05012499
:101BC000AC4005786D11AD0005F1E025C5F8004188
:101BD00009E0047804F01F050124AC401B4D067891
:101BE000761145F8264070BD194A0A400243154B4C
:101BF0001B1F1A60704739B1124A121D1268024346
:101C0000104B1B1D1A6006E00E4A121D126882431B
:101C10000C4B1B1D1A607047042808D14FF0E021BF
:101C2000096941F004014FF0E022116107E04FF033
:101C3000E021096921F004014FF0E02211617047B1
:101C40000000FA050CED00E000E400E080E100E0B7
:101C500080FFFF1F016821F0010101600021016088
:101C600041608160C160016121214161DB4988429D
:101C700004D13D21D94A103A91608CE0D7491831FE
:101C8000884205D14FF47461D44A103A916082E0E1
:101C9000D2493031884205D14FF47411CF4A103AFD
:101CA000916078E0CD494831884205D14FF07461A8
:101CB000CA4A103A91606EE0C8496031884204D146
:101CC000C749C64A103AD16065E0C44978318842B4
:101CD00004D1C449C14A103AD1605CE0BF49903197
:101CE000884204D1C049BD4A103AD16053E0BB4993
:101CF000A831884205D14FF03D51B84A103AD16021
:101D000049E0BA49884204D13D21B84A083A1160F5
:101D100041E0B6491831884205D14FF47461B34AA5
:101D2000083A116037E0B1493031884205D14FF4AB
:101D30007411AE4A083A11602DE0AC49483188422E
:101D400005D14FF07461A94A083A116023E0A74910
:101D50006031884204D1A249A44A121F11601AE0DE
:101D6000A2497831884204D19E49A04A121F1160CD
:101D700011E09E499031884204D19B499B4A121F31
:101D8000116008E09949A831884204D14FF03D51D3
:101D9000964A121F1160704710B500220268944BDA
:101DA0001A40CC680B6823434C6923438C69234356
:101DB000CC6923430C6A23434C6A23438C6A234334
:101DC0004C6B23438C6B23431A430260426922F01D
:101DD0000702D1E90B3423431A4342610B69436084
:101DE0004B6883608B68C36010BD00210160416057
:101DF0008160C160016141618161C16101624162D3
:101E00008162C162016341638163704721B10268ED
:101E100042F00102026003E0026822F00102026067
:101E2000704721B1026842F40042026003E0026898
:101E300022F400420260704721B1026842F02002A1
:101E4000026003E0026822F02002026070474160F5
:101E500070470146486880B2704722B1036843F476
:101E60000023036003E0036823F40023036001619F
:101E7000704721B1026842F48022026003E00268E8
:101E800022F48022026070470AB1016100E0C16063
:101E90007047014600200A6802F400220AB10120BE
:101EA00000E000207047014600200A6802F00102AD
:101EB0000AB1012000E000207047014600204A6975
:101EC00002F03800704730B503460A46002000246F
:101ED000464DAB4202D24149103901E04349103925
:101EE00002F000550DB14C6800E00C68414D2C40EB
:101EF00004EA02050DB1012000E0002030BD0246D9
:101F00003A4B9A4202D23548103801E0374810382F
:101F100001F000531BB1374B0B40C36002E0354B5F
:101F20000B408360704710B501F080034BB122B1C4
:101F3000436943F08003436103E0436923F0800376
:101F4000436180290BD02AB1036801F01E042343AA
:101F5000036004E0036801F01E04A343036010BDA6
:101F600070B50246002000240025204EB24202D265
:101F70001A4B103B01E01D4B103B1F4E0E4036B17B
:101F80001E2606EAD124166806EA040502E0566910
:101F900006F0800501F000560EB15C6800E01C6898
:101FA000144E344004EA010616B10DB1012000E0E0
:101FB000002070BD02460D4B9A4202D207481038ED
:101FC00001E00A48103801F000531BB1094B0B40E7
:101FD000C36002E0074B0B40836070471060024013
:101FE0003D000020400F002000003D201064024012
:101FF0003F801CF07D0F7D0F3C0F3C0F10B5044659
:102000009848844208D10121084600F0B0FD002123
:10201000012000F0ACFD76E09348844208D1012114
:10202000022000F0A4FD0021022000F0A0FD6AE0E3
:102030008E48844208D10121042000F098FD00213F
:10204000042000F094FD5EE08948844208D101211B
:10205000082000F08CFD0021082000F088FD52E0EF
:102060008448844208D10121102000F080FD002125
:10207000102000F07CFD46E07F48844208D1012119
:10208000202000F074FD0021202000F070FD3AE0D7
:102090007A48844208D10121402000F068FD0021E7
:1020A000402000F064FD2EE07548844208D10121F3
:1020B000802000F05CFD0021802000F058FD22E02F
:1020C0007048844208D10121801500F050FD0021A4
:1020D000A01500F04CFD16E06B48844208D10121A8
:1020E000401500F044FD0021601500F040FD0AE0BD
:1020F0006648844207D10121001500F038FD002117
:10210000201500F034FD10BDF0B50A460021002373
:10211000002400BF3DE0012505FA01F3156805EA3A
:1021200003049C4234D105684F000326BE40B543EA
:10213000056015794E00B540066835430560157990
:10214000012D02D01579022D16D185684F00032686
:10215000BE40B543856055794E00B540866835432D
:102160008560456801268E40B5434560456896798F
:102170008E40B6B235434560C5684F000326BE4069
:10218000B543C560D5794E00B540C6683543C560D6
:10219000491C1029BFD3F0BD4FF6FF71016000212B
:1021A000017141718171C171704708B54FF480327E
:1021B0000092009A0A430092009AC261C161009A9B
:1021C000C261C2690092C269009208BD0246002045
:1021D00013690B400BB1012000E00020704701465D
:1021E000086980B270470246002053690B400BB16A
:1021F000012000E0002070470146486980B2704726
:1022000001837047418370470AB1018300E0418335
:1022100070474161704742694A4042617047F0B57A
:10222000002300244D07ED0E02FA05F3CE1000F155
:10223000200555F826504E07F70E0F26BE40B54331
:10224000CF1000F1200646F82750CE1000F12005EF
:1022500055F8265045EA0304CE1000F1200545F854
:102260002640F0BD00000240000402400008024089
:10227000000C02400010024000140240001802400E
:10228000001C0240002002400024024000280240BE
:1022900010B50446FA48844208D10121102000F00C
:1022A000AAFC0021102000F0A6FC57E0F54884426B
:1022B00009D10121480400F08DFC00214FF40030C9
:1022C00000F088FC4AE0F048844209D101218804EA
:1022D00000F080FC00214FF4802000F07BFC3DE00A
:1022E000EA48844209D10121C80400F073FC0021AE
:1022F0004FF4002000F06EFC30E0E548844209D144
:102300000121080500F066FC00214FF4801000F068
:1023100061FC23E0DF48844208D10121202000F045
:102320006AFC0021202000F066FC17E0DA488442B5
:1023300009D10121880700F04DFC00214FF08040B9
:1023400000F048FC0AE0D548844207D1012140054D
:1023500000F040FC0021600500F03CFC10BD2DE9C0
:10236000FF4705460E460024A14600BFA046B0899F
:1023700000B100BF2C8A24F44054F08804432C821E
:10238000AC8941F20C608443B0883189084371897B
:1023900008430443AC81AC8A24F44074B0890443FC
:1023A000AC82684600F0A7FAB548854202D0B94829
:1023B000854202D1DDF80C9001E0DDF80890A88993
:1023C00000F4004040B109EBC90000EB091031688E
:1023D0004900B0FBF1F707E009EBC90000EB091079
:1023E00031688900B0FBF1F76420B7FBF0F004011D
:1023F0002009642101FB1078A88900F4004040B155
:10240000322000EBC800B0FBF1F000F007000443FD
:1024100008E0322000EB08106421B0FBF1F000F07E
:102420000F0004432C81BDE8FF874FF41651016073
:1024300000218180C18001810C21418100218181A5
:10244000704710B502460020108A20F470600B8897
:102450004C8823438C882343CC8823431843108221
:1024600010BD0021018041808180C180704721B171
:10247000828942F40052828104E082894DF6FF7322
:102480001A4082817047028B02F47F420283028BE2
:102490000A430283704721B1828942F4004282815B
:1024A00003E08289C2F30E028281704721B1828AE1
:1024B00042F40062828204E0828A4FF2FF731A4083
:1024C00082827047C1F30802828070470146888883
:1024D000C0F308007047028A4FF6F0731A40028278
:1024E000028A0A430282704721B1828942F00202C5
:1024F000828104E082894FF6FD731A408281704721
:1025000082894FF2FF731A40828182890A43828155
:102510007047028A4FF6DF731A400282028A0A432A
:102520000282704721B1028A42F48042028204E0B2
:10253000028A4BF6FF731A4002827047818941F08C
:1025400001018181704721B1828A42F008028282B2
:1025500004E0828A4FF6F7731A4082827047028B3A
:10256000D2B20283028B42EA01220283704721B178
:10257000828A42F02002828204E0828A4FF6DF7370
:102580001A408282704721B1828A42F01002828210
:1025900004E0828A4FF6EF731A4082827047828A83
:1025A0004FF6FB731A408282828A0A438282704706
:1025B00021B1828A42F00202828204E0828A4FF6CE
:1025C000FD731A40828270471AB1838A0B4383825B
:1025D00002E0838A8B4383827047F0B50346002470
:1025E00000260025002040F66A17B94200D100BF3E
:1025F0001846C1F3421401F01F06012707FA06F539
:10260000012C01D10C3004E0022C01D1103000E08B
:1026100014301AB107682F43076002E00768AF4320
:102620000760F0BD02460020B1F5007F00D100BF79
:1026300013880B400BB1012000E00020704701F42B
:102640000072B2F5007F00D100BFCA43028070471C
:1026500070B50246002400230025002040F66A16CB
:10266000B14200D100BFC1F3421501F01F030126A2
:1026700006FA03F3012D13D19689334017E00000C9
:10268000001001400044004000480040004C004061
:10269000005000400014014000780040007C0040E1
:1026A000022D02D1168A334001E0968A33400C1283
:1026B000012606FA04F41688344013B10CB1012047
:1026C00000E0002070BD10B50022002340F66A141F
:1026D000A14200D100BF0A1201249440A3B2DC43FE
:1026E000048010BDF948006840F00100F749086017
:1026F0000020F64908310860F4480068F4490840B1
:10270000F2490860F348091D0860F348EF49843135
:102710000860F0481038091D0860EC48006820F493
:102720008020EA4908600020E8490C310860E74948
:102730008C31086070470021E44A921C11701146E8
:102740000870704710B501460022002300204A118E
:10275000012A02D1DD4C236808E0022A03D1DB4CB8
:102760007034236802E0D94C7434236801F01F02EE
:10277000012494401C400CB1012000E0002010BD59
:1027800038B5002000900024002500BF3120FFF75D
:10279000D9FF05460098401C00900098B0F5A04F66
:1027A00001D0002DF2D03120FFF7CCFF08B1012479
:1027B00000E00024204638BD01460020C34A1068CE
:1027C00020F0F80040EAC10010607047C34908607B
:1027D00070470021BD4A703211701170012802D07B
:1027E00004280AD104E00121B84A7032117005E0D2
:1027F0000521B64A7032117000E000BF00BF70477B
:10280000B7490860704770B5049C41EA82150126FB
:10281000C6EB530645EA0645054345EA0465AB4E5B
:10282000361D356070BDAD4908667047820142EAC9
:102830000172A64B84331A607047A84988667047B6
:1028400010B5830143EA016343EA02739F4C883465
:10285000236010BDA14908677047A049C86470474C
:1028600002460020994B0833186820F0EC6042EAD9
:1028700001031843954B0833186070470246002047
:10288000924B0833186820F0784042EA010318435D
:102890008E4B083318607047014600208B4A08327F
:1028A000106820F003000843106070478748083024
:1028B000006800F00C00704701460020834A08328F
:1028C000106820F0F00008431060704701460020B7
:1028D0007E4A0832106820F4E050084310607047C8
:1028E00001460020794A0832106820F4604040EA2E
:1028F000C10010607047F0B50021002200240225BD
:1029000000260223714F08373F6807F00C0121B100
:10291000042905D0082937D105E0724F076036E059
:10292000714F076033E0694F3F1D3F68C7F3805622
:10293000664F3F1D3F6807F03F036EB16A4FB7FB1C
:10294000F3F7DFF888C10CF1040CDCF800C0CCF31D
:10295000881C07FB0CF40CE0624FB7FBF3F7DFF8C1
:102960006CC10CF1040CDCF800C0CCF3881C07FB34
:102970000CF4564F3F1D3F68C7F301477F1C7D0095
:10298000B4FBF5F7076002E0564F076000BF00BFD9
:102990004E4F08373F6807F0F0010909534F7A5C42
:1029A0000768D7404760494F08373F6807F4E05150
:1029B000890A4E4F7A5C4768D7408760434F083793
:1029C0003F6807F46041490B484F7A5C4768D7403D
:1029D000C760F0BD002100F44072B2F5407F0AD11B
:1029E0003A4A0832116821F4F811414A0240114371
:1029F000364A08321160354A70321268C0F30B0350
:102A00001A43324B70331A607047354944390860B5
:102A1000704733494039086070473649086070474D
:102A200001460020294A8C32106820F01F004A1EFF
:102A30001043264A8C321060704701460020234A1A
:102A40008C32106820F4F8504A1E40EA02201F4AD7
:102A50008C3210607047014600201C4A8C3210688E
:102A600020F4401008431060704701460020174AC8
:102A70008C32106820F44000084310607047014613
:102A80000020124A8C32106820F440300843106055
:102A9000704719490860704739B10C4A30321268E2
:102AA00002430A4B30331A6006E0084A303212689B
:102AB0008243064B30331A607047F9B1034A34320F
:102AC00012680243014B34331A601CE000380240A4
:102AD000FFFFF6EA103000240030002000004742DB
:102AE000800E47420024F40000127A0058000020B3
:102AF000FFFCFF0F5C014742E01147428F4A12681A
:102B000082438E4B1A60704739B18C4A121D12688D
:102B100002438A4B1B1D1A6006E0884A121D126888
:102B20008243864B1B1D1A60704739B1834A0C32B1
:102B300012680243814B0C331A6006E07F4A0C3264
:102B4000126882437D4B0C331A60704739B17B4A5F
:102B5000103212680243794B10331A6006E0774A4C
:102B6000103212688243754B10331A60704739B1C6
:102B7000724A243A12680243704B243B1A6006E002
:102B80006E4A243A126882436C4B243B1A607047A9
:102B900039B16A4A203A12680243684B203B1A60F6
:102BA00006E0664A203A12688243644B203B1A6072
:102BB000704739B1614A1C3A126802435F4B1C3BB3
:102BC0001A6006E05D4A1C3A126882435B4B1C3B6C
:102BD0001A60704739B1594A143A12680243574B88
:102BE000143B1A6006E0554A143A12688243534B6C
:102BF000143B1A60704739B1504A103A12680243C8
:102C00004E4B103B1A6006E04C4A103A1268824361
:102C10004A4B103B1A60704739B1484A1C3212685F
:102C20000243464B1C331A6006E0444A1C321268C9
:102C30008243424B1C331A60704739B13F4A2032FD
:102C4000126802433D4B20331A6006E03B4A2032B3
:102C500012688243394B20331A60704739B1374AC2
:102C6000243212680243354B24331A6006E0334A9B
:102C7000243212688243314B24331A60704739B1D1
:102C80002E4A2C32126802432C4B2C331A6006E079
:102C90002A4A2C3212688243284B2C331A60704720
:102CA00039B1264A303212680243244B30331A605D
:102CB00006E0224A303212688243204B30331A60D9
:102CC0007047012808D11D493C31096841F00801CD
:102CD0001A4A3C32116007E018493C31096821F07A
:102CE0000801164A3C321160704739B1134A273A3D
:102CF00012780243114B273B1A7006E00F4A273A1D
:102D0000127882430D4B273B1A7070470B484030B6
:102D1000006840F080700949403108607047014602
:102D20000020064A283A12680A400AB1012000E051
:102D30000020704701492639087070473438024036
:102D400010B501210802FFF756FF00214FF48070F3
:102D5000FFF751FF10BD30B5024600200023506838
:102D6000F84C20400D790C6844EA0524204350605B
:102D70009068F54C2040D1E903542C438D682C43D6
:102D80004D7944EA450420439060D06A20F47000F5
:102D90000C7D641EE4B2234340EA0350D06230BD90
:102DA00000210160017141718160C16001610121F7
:102DB000017570470021E54A1168E54A1140D0E9E4
:102DC00000231A4383681A43C3681A431143E14A34
:102DD000C2F8041370470021016041608160C16046
:102DE000704721B1826842F00102826003E082688C
:102DF00022F00102826070470A4600214168D64BEA
:102E000019401143416070474162826270470A462F
:102E10000021416821F01F0111434160704738B122
:102E2000CA49096841F40001CA4AC2F8041306E01D
:102E3000C649096821F40001C64AC2F80413704764
:102E400038B1C249096841F48001C24AC2F804138A
:102E500006E0BE49096821F48001BE4AC2F80413A5
:102E60007047F0B504460D4600200021092D11DD04
:102E7000E068A5F10A0606EB4607072606FA07F101
:102E80008843A5F10A0606EB460603FA06F1084355
:102E9000E0600CE0206905EB4507072606FA07F11C
:102EA000884305EB450603FA06F108432061072A2B
:102EB0000FDA606B561E06EB86071F2606FA07F12F
:102EC0008843561E06EB860605FA06F10843606342
:102ED00022E00D2A0FDA206BD61F06EB86071F268D
:102EE00006FA07F18843D61F06EB860605FA06F1B7
:102EF0000843206310E0E06AA2F10D0606EB8607A6
:102F00001F2606FA07F18843A2F10D0606EB860696
:102F100005FA06F10843E062F0BD816841F08041A6
:102F200081607047014600208A6802F080420AB141
:102F3000012000E00020704721B1826842F48062E5
:102F4000826003E0826822F480628260704721B16F
:102F5000826842F00202826003E0826822F002028C
:102F60008260704710B50A4600210023416821F4B1
:102F70006041531E41EA4331416010BD21B14268B6
:102F800042F40062426003E0426822F40062426060
:102F900070470146C86C80B270476C48001D0068DD
:102FA000704721B1826842F48072826003E08268D7
:102FB00022F480728260704721B1826842F400720C
:102FC000826003E0826822F400728260704738B148
:102FD0005E49096841F400515E4AC2F8041306E0F4
:102FE0005A49096821F400515A4AC2F8041370473B
:102FF000F0B504461546002000220026092911DDFF
:10300000E068A1F10A0707EB470C072707FA0CF263
:103010009043A1F10A0707EB470703FA07F21043B1
:10302000E0600CE0206901EB410C072707FA0CF285
:10303000904301EB410703FA07F210432061A06BB4
:10304000C0F30156EF1C06F1010CA7EB0C0707EBD0
:10305000870C1F2707FA0CF29043EF1C06F1010CB6
:10306000A7EB0C0707EB870701FA07F21043A063F1
:10307000F0BD10B50A4600210023816B21F44011F8
:10308000531E41EA0351816310BD08B5002300932C
:103090000090009B0B440093009B1A6008BD0A46F9
:1030A0000021816821F470211143816070470A4634
:1030B0000021816821F440111143816070478168CB
:1030C00041F4800181607047014600208A6802F463
:1030D00080020AB1012000E00020704721B142685F
:1030E00042F48062426003E0426822F480624260FF
:1030F000704721B1426842F48052426003E0426866
:1031000022F480524260704708B5024600200090C9
:10311000009201F12800009B18440090009800687C
:1031200080B208BD10B50B460021D9B2012404FAC3
:1031300001F11AB144680C43446002E044688C43D6
:10314000446010BDFFFEFFFCFDF7FFC004230140FB
:10315000E030FCFF00200140FFFD3FFF0246002061
:1031600013680B400BB1012000E000207047CA43F8
:103170000260704770B502460020002300240B1245
:10318000556801268E4005EA060415681D4015B1F4
:103190000CB1012000E0002070BD00220A12D343D0
:1031A0000360704710B50446FE48844208D10121EF
:1031B0000846FFF720FD00210120FFF71CFD9DE0E0
:1031C000B4F1804F08D101210846FFF703FD00212B
:1031D0000120FFF7FFFC91E0F348844208D1012170
:1031E0000220FFF7F7FC00210220FFF7F3FC85E047
:1031F000EE48844208D101210420FFF7EBFC0021B6
:103200000420FFF7E7FC79E0E948844208D1012176
:103210000820FFF7DFFC00210820FFF7DBFC6DE052
:10322000E448844208D101211020FFF7D3FC00219B
:103230001020FFF7CFFC61E0DF48844208D1012174
:103240002020FFF7C7FC00212020FFF7C3FC55E03A
:10325000DA48844208D101210220FFF7CCFC00218A
:103260000220FFF7C8FC49E0D548844209D101217A
:103270000804FFF7C0FC00214FF48030FFF7BBFCCF
:103280003CE0D048844209D101214804FFF7B3FC57
:1032900000214FF40030FFF7AEFC2FE0CA48844213
:1032A00009D101218804FFF7A6FC00214FF48020FA
:1032B000FFF7A1FC22E0C548844208D1012140204B
:1032C000FFF788FC00214020FFF784FC16E0C0488F
:1032D000844208D101218020FFF77CFC002180205E
:1032E000FFF778FC0AE0BB48844207D10121801532
:1032F000FFF770FC0021A015FFF76CFC10BD002249
:103300000288A84B98420ED0AC4B98420BD0B0F13B
:10331000804F08D0A44B984205D0A44B984202D0CD
:10332000A34B984204D14FF68F731A404B881A432F
:10333000A04B984207D0A04B984204D04FF6FF43D1
:103340001A400B891A4302804B68C3620B880385BD
:10335000944B984202D0994B984201D18B7A0386C4
:103360000123838270474FF0FF31416000210180CB
:1033700001814180817270470185828270470A46CF
:10338000002101884FF68F73194011430180704767
:1033900041627047C16270470146486A7047014602
:1033A000088D704721B1028842F00202028004E0D9
:1033B00002884FF6FD731A400280704721B10288DF
:1033C00042F00402028004E002884FF6FB731A40C8
:1033D0000280704721B1028842F08002028004E03E
:1033E00002884FF67F731A400280704702884FF6BA
:1033F000F7731A40028002880A43028070470288ED
:103400004FF6FF431A40028002880A430280704749
:1034100021B1028842F00102028004E002884FF6E6
:10342000FE731A400280704770B50024002200230A
:10343000058C4FF6FE7635400584028C8388048B1C
:103440004FF68F752C40B51E2C400D882C43751EF1
:103450002A408D892A434D882A43524DA84202D0E2
:10346000564DA84213D14FF6F7752A40CD892A430D
:103470004FF6FB752A408D882A434FF6FF652B4097
:103480004FF6FF552B400D8A2B434D8A2B438380EB
:1034900004838D684563028470BD70B500240022EA
:1034A0000023058C4FF6EF7635400584028C838827
:1034B000048B48F6FF752C404FF6FF452C400D88D5
:1034C0004FF6FF7606EA05252C434FF6DF752A40B6
:1034D0008D8906EA05152A434D8806EA05152A4313
:1034E000304DA84202D0354DA8421DD14FF67F7510
:1034F0002A40CD894FF6FF7606EA05152A434FF696
:10350000BF752A408D8806EA05152A434FF6FF3518
:103510002B404FF2FF752B400D8A06EA85052B43A1
:103520004D8A06EA85052B43838004838D68856375
:10353000028470BD70B5002400220023058C4FF674
:10354000FF6635400584028C8388848B4FF68F7527
:103550002C404FF6FC752C400D882C434FF6FF5540
:103560002A408D894FF6FF7606EA05252A434D88C5
:1035700006EA05252A430B4DA84202D00F4DA8426A
:1035800038D14FF2FF752A40CD894FF6FF7606EA13
:1035900005252A434FF6FF352A408D8806EA052582
:1035A0002A4319E0000001400004004000080040E8
:1035B000000C0040001000400014004000040140D6
:1035C0000040014000440140004801400018004014
:1035D000001C0040002000404EF6FF752B404DF6C9
:1035E000FF752B400D8A06EA05152B434D8A06EA26
:1035F00005152B43838084838D68C563028470BD69
:1036000070B5002200230024058C4EF6FF7635406D
:103610000584038C8488828B48F6FF752A404FF618
:10362000FF452A400D884FF6FF7606EA05252A4316
:103630004DF6FF752B408D8906EA05352B434D88E5
:1036400006EA05352B43FE4DA84202D0FD4DA842A7
:1036500008D14BF6FF752C400D8A4FF6FF7606EA2F
:1036600085152C43848082838D680564038470BD36
:10367000002101804180818081608181C18101823E
:103680004182704770B50346002000241846183068
:1036900001258D40ACB21D8CA5431D8409B10829BC
:1036A0000AD100EB610005684FF68F763540056062
:1036B0000568154305600FE00D1FC5F34E0528444E
:1036C000056848F6FF763540056005684FF6FF76D9
:1036D00006EA02263543056070BD41637047816389
:1036E0007047C1637047016470470A460021018B2F
:1036F0004FF68F7319401143018370470A4600212A
:10370000018B48F6FF7319404FF6FF7303EA02235B
:103710001943018370470A460021818B4FF68F734E
:1037200019401143818370470A460021818B48F676
:10373000FF7319404FF6FF7303EA02231943818395
:1037400070470A460021018B4FF6F7731940114369
:10375000018370470A460021018B4FF2FF73194025
:103760004FF6FF7303EA02231943018370470A46A9
:103770000021818B4FF6F773194011438183704705
:103780000A460021818B4FF2FF7319404FF6FF73F9
:1037900003EA02231943818370470A460021018B03
:1037A0004FF6FB7319401143018370470A4600210D
:1037B000018B4FF6FF3319404FF6FF7303EA0223E4
:1037C0001943018370470A460021818B4FF6FB7332
:1037D00019401143818370470A460021818B4FF6BF
:1037E000FF3319404FF6FF7303EA02231943818325
:1037F00070470A460021018B4FF67F731940114331
:10380000018370470A460021018BC1F30E014FF678
:10381000FF7303EA02231943018370470A4600211C
:10382000818B4FF67F7319401143818370470A469D
:103830000021818BC1F30E014FF6FF7303EA0223CF
:103840001943818370470A460021018C4FF6FD73AE
:1038500019401143018470470A460021018C4FF63C
:10386000F77319401143018470470A460021018C07
:103870004FF6DF7319404FF6FF7303EA0213194343
:10388000018470470A460021018C4FF67F7319406E
:103890004FF6FF7303EA02131943018470470A4687
:1038A0000021018C4FF6FF5319404FF6FF7303EAD6
:1038B00002231943018470470A460021018C4FF20C
:1038C000FF7319404FF6FF7303EA02231943018483
:1038D00070470A460021018C4DF6FF7319404FF6E0
:1038E000FF7303EA023319430184704730B50023A4
:1038F00001248C40A3B2048C9C430484048C02FAFF
:1039000001F5ADB22C43048430BD30B5002304244E
:103910008C40A3B2048C9C430484048C02FA01F50D
:10392000ADB22C43048430BD828B4FF2FF331A407A
:103930008283828B4FF6FF7303EA01231A4382834B
:103940007047F0B50C461546002100220026078C72
:103950004EF6FF7C07EA0C070784818B028C4FF63A
:10396000FF7707EA043640F6FF4739404FF6FF7706
:1039700007EA052739434FF6FF7707EA033739434C
:1039800045F6FF773A4046F480573A4381830284F4
:10399000F0BD828B4FF6F3731A408283828B0A4309
:1039A00082837047F0B50C461546002100220026A0
:1039B000078C4FF6FF6C07EA0C070784818B028C9B
:1039C0004FF6FF7707EA04264FF60C7739404FF69B
:1039D000FF7707EA03172F4339434FF2FF573A4067
:1039E00046F480773A4381830284F0BD028B4FF224
:1039F000FF331A400283028B4FF6FF7303EA012361
:103A00001A4302837047F0B50C4615460021002288
:103A10000026078C4FF6EF7C07EA0C070784018B22
:103A2000028C4FF6FF7707EA041640F6FF4739404D
:103A30004FF6FF7707EA033739434FF6FF7703E086
:103A4000000001400004014007EA052739434FF612
:103A50005F773A4046F010073A4301830284F0BD95
:103A6000028B4FF6F3731A400283028B0A430283E0
:103A70007047F0B50C46154600210022068C4FF623
:103A8000FE773E400684018B028C4FF60C76314067
:103A90007E1C06EA03162E4331434FF6F57632407C
:103AA00044F00106324301830284F0BD70B505463F
:103AB0000C46208850B92389A28861882846FFF7E0
:103AC000D8FFE1882846FFF7CBFF25E020880428AF
:103AD0000AD12389A28861882846FFF794FFE188EC
:103AE0002846FFF783FF17E0208808280AD123899A
:103AF000A28861882846FFF755FFE1882846FFF72E
:103B000048FF09E02389A28861882846FFF719FF4A
:103B1000E1882846FFF708FF70BD00210180418041
:103B2000012181800021C180018170472DE9F04190
:103B300005460C4600260127608808B9022600E0E9
:103B40000026A088012801D1022700E00127208853
:103B5000A0B92389A28861882846FFF78AFFE188F7
:103B60002846FFF77DFF23893A4631462846FFF76E
:103B70004AFFE1882846FFF739FF13E02389A2882E
:103B800061882846FFF73FFFE1882846FFF72EFFB0
:103B900023893A4631462846FFF76BFFE1882846DD
:103BA000FFF75EFFBDE8F0810146486B70470146B4
:103BB000886B70470146C86B70470146086C7047B8
:103BC0000A884B881A438B881A43CB881A430B897F
:103BD0001A434B891A438B891A43A0F84420704733
:103BE0000021018041808180C180018141818181EA
:103BF000704731B1B0F8442042F40042A0F84420AC
:103C000005E0B0F84420C2F30E02A0F8442070474B
:103C100021B1828842F00402828004E082884FF65B
:103C2000FB731A408280704721B1828842F0010202
:103C3000828004E082884FF6FE731A4082807047CB
:103C40001AB183890B43838102E083898B4383818B
:103C500070478182704702460020138A0B400BB1E7
:103C6000012000E000207047CA430282704730B54F
:103C70000246002000230024158A05EA01039589E5
:103C800005EA010413B10CB1012000E0002030BDB1
:103C9000CA430282704741EA0203A0F848307047E5
:103CA0001AB183890B43838102E083898B4383812B
:103CB000704721B1828842F00802828004E0828845
:103CC0004FF6F7731A408280704701894FF6F872F9
:103CD0001140018170470A46002101894FF68F7318
:103CE000194011430181704730B504460D462946FD
:103CF0002046FFF7F0FF208940F00700208130BD0B
:103D00002DE9F04104460D4616461F46602D06D1AA
:103D10003B46012231462046FFF775FE05E03B4653
:103D2000012231462046FFF7A4FE29462046FFF730
:103D3000D2FF208940F007002081BDE8F08130B536
:103D40000C4600210189C9B24FF6FF7505EA03252B
:103D5000154325432943018130BD2DE9F041054636
:103D60000E4617469846002443463A4631462846B2
:103D7000FFF7E5FF2C894FF6F870044044F0070484
:103D80004FF68F70044044F070042C81BDE8F08140
:103D9000F0B504460D4616461F463B4632462946B8
:103DA0002046FFF7CCFF208940F480402081F0BD01
:103DB00082884FF68F731A40828082880A438280FD
:103DC000704702894FF6F8731A40028102890A434C
:103DD0000281704702894FF67F731A40028102897F
:103DE0000A4302817047F0B50C4615461E46002175
:103DF000002200230189028B038C4FF6F8773940AB
:103E000021434FF6FC473A4040F201173A434FF640
:103E1000DD773B404FF6FF7707EA06172F433B431A
:103E2000018102830384F0BD21B1828842F08002C7
:103E3000828004E082884FF67F731A408280704748
:103E4000A0F8501070470000002041490860091D8B
:103E50000860091D0860091D08603E483C4914318E
:103E60000860704700213A498279002A3AD00A4610
:103E7000126803689A430B461A600A1D12680368A9
:103E80009A430B1D1A60027911440A6803681A43A9
:103E90000A602F4A0832126803689A432C4B083391
:103EA0001A601A1D126803689A43294B0C331A6072
:103EB0004279102A0ED11A1F126803681A43244B44
:103EC00008331A601A1D126803681A43204B0C331A
:103ED0001A600DE01E49427911440A6803681A43CA
:103EE0000A6005E0027911440A6803689A430A608F
:103EF00070470021016001710C2141710021817125
:103F000070471349103109680143114A103211609A
:103F10007047014600200E4A143212680A400AB166
:103F2000012000E000207047094914310860704703
:103F300001460020064A143212680A400AB10120E4
:103F400000E000207047024914310860704700000B
:103F5000003C0140FFFF7F0010B501210807FEF77C
:103F600039FE00214FF08050FEF734FE10BD52495B
:103F70000862704701460020504A106820F0E000B7
:103F80000843106070474C49086170474A49A031A6
:103F9000086070474849A431086070470146002016
:103FA000464A106820F44040084310607047424978
:103FB0000864704740494864704730B13F49096818
:103FC00041F440213D4A116005E03C49096821F473
:103FD00040213A4A1160704718B10121364AD16236
:103FE00002E00021344AD162704718B10121324AFF
:103FF000916202E00021304A916270472E49486286
:10400000704710B5024600202C4B186840F6034359
:1040100098431043294B1860294B1B6843F0040355
:10402000274C2360012901D130BF00E020BF244B81
:104030001B6823F00403224C236010BD10B5024618
:1040400000201E4B186840F60343984310431B4B57
:1040500018601B4B1B6843F00403194C23600129B3
:1040600001D130BF00E020BF154B1B6823F00403D3
:10407000134C236010BD1148006840F002000F4946
:1040800008600F48006840F004000D49086000BF58
:1040900000BF30BF704701460020084A52680A40FE
:1040A0000AB1012000E0002070470449096841EA94
:1040B0008001024A1160704700000E42007000400B
:1040C00010ED00E0704700000FB4044910B503AADA
:1040D000029800F0FBF810BC5DF814FB54000020BF
:1040E0002DE9F0410646002410687529314616A5D1
:1040F00010D0AFF30080002802DA404213A507E099
:1041000031688A0701D512A502E0490704D511A537
:10411000012401E0AFF3008000210A2206F1240708
:1041200009E0B0FBF2FCB0FBF2F302FB1C00303004
:1041300078541846491C0028F3D123462A463046B5
:10414000BDE8F04100F068B8000000002D0000005C
:104150002B000000200000002DE9F0410F4605462D
:10416000002028622846E968884770B3252805D0D2
:10417000D5E901219047286A401CF2E7E968284602
:10418000002688476C2804460AD0682C08D04C2C9E
:1041900035D06A2C31D0742C31D07A2C2FD016E047
:1041A000E968064628468847B042044608D16C2E86
:1041B00023D04FF480662846E9688847044606E025
:1041C0006C2E03D04FF4807601E01EE04026E4B16F
:1041D000A4F14100192802D8203446F400663A467A
:1041E000214628462E60FCF709F860B1012808D066
:1041F000FF1D27F007070837B4E78026DBE7002616
:10420000D9E73F1DAEE72046B2E7286ABDE8F08156
:1042100070477047704770472DE9F0470D46994643
:104220009246044600F124080168880604D5E06936
:1042300021F01001216000E00120A84201DD471BB0
:1042400000E00027A1697A1902EB0900081AA061B1
:104250002078C00602D42046AFF30080002608E094
:10426000D4E901211AF806009047206A401C761C08
:1042700020624E45F4DB2078C0060AD52046AFF315
:10428000008006E0D4E9012130209047206A401CDC
:104290002062381EA7F10107F4DC07E0D4E9012110
:1042A00018F805009047206A401C2062281EA5F1DE
:1042B0000105F3DC2046AFF300802078000602D52C
:1042C0000220BDE8F0870120FBE70000074B70B536
:1042D0000D467B4400F011F80446284600F020F813
:1042E00010B14FF0FF3070BD204670BD27D7FFFFE3
:1042F00001694A1C02610878704700B58FB0CDE9AA
:1043000001310021059105497944CDE90310114699
:104310006846FFF721FF0FB000BD0000E5FFFFFF7B
:10432000007B00F080007047754600F02BF8AE4629
:1043300005006946534620F00700854618B020B5B1
:10434000FDF706FCBDE820404FF000064FF00007E7
:104350004FF000084FF0000B21F00701AC46ACE82D
:10436000C009ACE8C009ACE8C009ACE8C0098D469A
:10437000704710B50446AFF300802046BDE81040FA
:10438000FBF750BF00487047F80200202DE9C041FC
:1043900030B4DFF8A0C23CEA111418BF3CEA131491
:1043A00000F0EC8081EA03051CEA111444EAD5749C
:1043B00018BF1CEA131500F0C780A4EB05044FF0EA
:1043C000004545EAC12145EAC32341EA505143EA89
:1043D000525304F17F74994204F500344FEAC0202F
:1043E0004FEAC22208BF904200F09C804FEA13655A
:1043F0000FF24016765D4FEA134506FB05F7C7F14D
:10440000807706FB07F74FEAD737A7FB03687642AA
:10441000C8F58038A7FB06CE38BFA8F1010807FB16
:1044200008E64FF0000EA6FB028CE6FB03CEDCF1A3
:10443000000CCEF1004E38BFAEF1010EA6FB0C58B9
:104440004FF000074FF00005E6FB0E87A1FB08C602
:10445000A0FB07CE16EB0E0645F10005E1FB076554
:1044600015F1E04E7EBFA4F580345FEA46066D414B
:1044700016F1800745F100054FEA17274FEA066657
:1044800047EA0567A6F1DE46B6F1805F4FEA1525DB
:104490001FD9384624F0010C05EBC471BCF1FE6F46
:1044A00001EB0C1102D8F0BCBDE8008124425CBFD6
:1044B00001F5801E9EEAC47F02D4F0BCBDE80081F5
:1044C000244238D4F0BCA1F1C041BDE8004100F065
:1044D000EDB94FEAD22242EA43524FEAD323A7FB77
:1044E00002864FEAD02040EA415007FB03661EEAED
:1044F0000E0F4FEAD12105FB026658BFA6EB00560E
:10450000B6EB00564FEA520E4EEAC37E18EB0E0E83
:1045100056EB530EBDD518EB02085E417F1C55F1DA
:104520000005B6E74FF480154FF000074FF0000686
:104530004FF00008ADE7F0BC4FF0000001F1C041C2
:1045400001F00041BDE8008111EA0C1F0CEA1315CF
:1045500000D00CE013EA0C1F00F025804FF00000A3
:10456000F0BC81EA030101F00041BDE80081F0BC2C
:10457000BDE8004181EA030100F098B9F0BCBDE854
:10458000004170B500F044F9097EFC3E00F007B828
:1045900081EA03014FF0000001F00041704781EA19
:1045A000030100F083B9F0BCBDE800414FF000000A
:1045B00021497047FFFDFBF9F7F5F4F2F0EEEDEB62
:1045C000E9E8E6E4E3E1E0DEDDDBDAD8D7D5D4D311
:1045D000D1D0CFCDCCCBCAC8C7C6C5C4C2C1C0BF5D
:1045E000BEBDBCBBBAB9B8B7B6B5B4B3B2B1B0AF63
:1045F000AEADACABAAA9A8A8A7A6A5A4A3A3A2A147
:10460000A09F9F9E9D9C9C9B9A9999989797969501
:1046100095949393929191908F8F8E8E8D8C8C8B9D
:104620008B8A898988888787868585848483838225
:10463000828181800000FF070000F87F4FEA11535C
:10464000A3F58063D3F11E03A8BFD3F1200C08DBD0
:104650004FF0004242EAC12252EA505232FA03F0CD
:10466000704709420BD4102BC4BF0020704703F5DC
:10467000787CBCF1FF3F05D04FF0FF3070474FF022
:104680000000704770B500F0C3F800BF4992248065
:1046900000207047F0E7B0FA80F310FA03F10AD077
:1046A000C3F11D0303F580634FEA41504FEA035203
:1046B00002EBD12170474FF000007047DFF848C18E
:1046C00070B51CEA111E1EBF1CEA13159EEA0C0FE2
:1046D00095EA0C0F00F06F8081EA030423EA4C1383
:1046E0004EEAD47E21EA4C1141F4801143F4801348
:1046F000AE44A1FB024CA0FB0365AEF17F7E3619F0
:1047000055EB0C05A1FB034C4CF10003A0FB021C74
:1047100016EB0C06654153F10003094218BF46F041
:10472000010613F4007F0BD14FEA03314FEA053045
:10473000340341EA155140EA16506FF003020AE0D3
:104740004FEAC3214FEAC520F40241EA555140EA3D
:1047500056506FF0020202EB2E4201EB025585EA41
:10476000CE710AD05FEA440C18BF24F0004450F127
:10477000000041F1000120EAD47040F2FE7C624565
:1047800000D270BDA84214BF4FF080444FF04044A7
:10479000002E08BF0024BEF1806FA8BFA1F1C04168
:1047A000BDE8704080F282804FF0000001F1C0410E
:1047B00001F0004170479EEA0C0F0CEA131518BF78
:1047C00095EA0C0F06D04FF0000081EA030E0EF0C0
:1047D000004170BD00F01CF88900013E00F007B8F0
:1047E00000F009B84FEA430C5FEA5C5C08D081EA4C
:1047F000030100F05BB84FEA410C5FEA5C5CF6D164
:104800004FF00000014970470000FF070000F87FEB
:104810000EF1020E2EF0030E5EF8046B364205D444
:10482000012A43EB030515F5001F12D8012841EBBF
:10483000010C1CF5001F0CD80ED14FEAD17C15F5E8
:10484000001F0CEB4C0C0CF1020C08BF4CEBD37CA2
:1048500004E04FF0080C01E04FEAD37C0CEB4C0570
:1048600026FA05F606F00706B6F1040C06D20EEBA2
:10487000860CBDE870404CF0010C6047DFE80CF09E
:10488000090B02024FF000414FF00000A1F500219A
:1048900070BD19461046012851EB010418BFD4F52C
:1048A000001484BF002001F0004170BD0808A0F58D
:1048B00000114FEA310170474FF04070E1EE100AED
:1048C00070470000E4480008000000206800000075
:1048D000C40100084C49000868000020F0080000EE
:1048E000E001000801000000007A030A0000000057
:1048F0000000000001020304060708090000000090
:1049000076F501010159FFCC76F5FF0301AAFFCC32
:1049100090020020A1020020030200010405070606
:104920000E0C00000000000000000000000000006D
:104930000000000000000000000000000000000077
:0C49400001020304010203040607080939
:040000050800018965
:00000001FF
